:020000040000fa
:080000000002040000000000f2
:020000040000fa
:1000080044040000440400004404000044040000c8
:1000180044040000440400004404000044040000b8
:100028004404000044040000440400007818000060
:100038004404000044040000440400004404000098
:10004800440400004404000044040000ea66000080
:100058001667000044040000440400004404000043
:100068004404000044040000440400004404000068
:100078004404000044040000440400004404000058
:100088004404000044040000440400004404000048
:100098005067000044040000c21900006a190000fb
:1000a8004404000044040000440400004404000028
:1000b8004404000044040000440400004404000018
:1000c8004404000044040000440400004404000008
:1000d80044040000440400004404000044040000f8
:1000e8004404000044040000143d000044040000df
:1000f80044040000440400004404000044040000d8
:1001080044040000440400004404000044040000c7
:1001180044040000440400004404000044040000b7
:1001280044040000440400004404000044040000a7
:100138004404000044040000440400004404000097
:100148004404000044040000440400004404000087
:100158004404000044040000440400004404000077
:100168004404000044040000440400004404000067
:100178004404000044040000440400004404000057
:100188004404000044040000440400004404000047
:100198004404000044040000440400004404000037
:1001a8004404000044040000440400004404000027
:1001b8004404000044040000440400004404000017
:1001c8004404000044040000440400004404000007
:1001d80044040000440400004404000044040000f7
:1001e80044040000440400004404000044040000e7
:1001f80044040000440400004404000044040000d7
:1002080044040000440400004404000044040000c6
:1002180044040000440400004404000044040000b6
:1002280044040000440400004404000044040000a6
:100238004404000044040000440400004404000096
:100248004404000044040000440400004404000086
:100258004404000044040000440400004404000076
:020000040000fa
:100400008f9d27000eff2d000e01880000000000c8
:1004100000012000200288000c00070020d12700e6
:10042000010020000f000700000020000000e00095
:10043000020032000000020000000000a867020075
:10044000000000000040da000000fe004001200033
:100450000000e0000200320000202000900188002f
:1004600000000600a1028800800078000000eb0078
:100470001a003700e280400054a0b4009101ba0095
:10048000e280400054a0b4009102ba00e280400033
:1004900054a0b4000002eb00472bde00f507b200c9
:1004a000a6018800602ce10008003a000049eb003a
:1004b0000201e800020039003420ec0002f0a00044
:1004c0008301e900f9ff3e00040037006128e100e4
:1004d000010032000082eb00040007001101ba00a5
:1004e0000200e000e3ff3a000000060004d0a30091
:1004f000e20f49001c003900810278003549ba003a
:100500000201e800020039003420ec0002f0a000f3
:100510008301e9000f0032002549ba000201e8001a
:10052000020039003420ec0002f0a0008301e90051
:10053000080032000400e0000600320015c9ba00cd
:100540000201e800020039003420ec0002f0a000b3
:100550008301e9008180e80054a0b4000300e000ba
:10056000e2ff3a00000006009102ba000559780047
:100570008301e900f7ff3200c82ade000559780040
:100580008301e900f3ff32000400e000f1ff3200d4
:1005900011d9ba00eeff37004857040000000000f0
:1005a000265704000000000010570400000000005f
:1005b000c656040000000000b2560400000000000f
:1005c0009c56040000000000885604000000000053
:1005d0003256040000000000125604000000000023
:1005e000f255040000000000d25504000000000095
:1005f000c855040000000000805504000000000001
:100600002a550400000000001655040000000000f8
:10061000e654040000000000d6540400000000006e
:10062000cc54040000000000ce21040000000000b3
:100630009224040000000000c22604000000000014
:100640009854040000000000387904000000000005
:100650004a790400000000007878040000000000df
:1006600044790400000000005079040000000000fc
:100670002e25040000000000742604000000000085
:10068000fa240400000000006e26040000000000b0
:10069000b426040000000000d42204000000000082
:1006a0004424040000000000a02204000000000018
:1006b0003e24040000000000842404000000000028
:1006c000f627040000000000da2a04000000000001
:1006d000c227040000000000d42a0400000000002b
:1006e0001a2b040000000000244904000000000050
:1006f0002246040000000000ee4604000000000056
:100700001c460400000000006e4c040000000000c5
:100710007870040000000000d471040000000000a4
:10072000b26f040000000000b4710400000000007b
:10073000da71040000000000fa71040000000000fb
:10074000d87b040000000000de7c040000000000f4
:10075000967b040000000000be7c04000000000046
:10076000e47c040000000000047d040000000000a0
:1007700046770400000000004078040000000000fc
:1007800092760400000000002078040000000000c1
:1007900046780400000000006678040000000000b5
:1007a00076810400000000001082040000000000b8
:1007b0003481040000000000f0810400000000000b
:1007c00016820400000000003682040000000000d1
:1007d000d65a0400000000004c5d04000000000038
:1007e0009258040000000000465d04000000000074
:1007f000525d040000000000fa4404000000000004
:10080000e844040000000000104c04000000000058
:10081000244c040000000000aa6104000000000055
:10082000c261040000000000b66104000000000086
:10083000da6104000000000042190400000000001a
:10084000f61b040000000000c81b040000000000ac
:10085000521d0400000000008a1d0400000000007a
:10086000ba1e040000000000aa1f040000000000df
:100870008020040000000000621a04000000000054
:100880004a1b0400000000000040da000000fe00e7
:1008900003f0a200889fbe008a9fbe008c1f7800d4
:1008a000430107004a0133006450e1004f00320069
:1008b0006420e1005200320003826c0007003b001c
:1008c0000905d0000306d000820f54000c065d001d
:1008d0000200390002003200890178000306780026
:1008e0008582550004003d000003fd008103fd00ea
:1008f0008502ea008b854200840f720002003b00f3
:1009000060001000e08018006011b8000005eb00e6
:100910007a28e1000a00390006007800c75ddd0092
:10092000f707b200878075002d00370082817100c3
:100930000a017800610560008180d1000080d30049
:100940008502e900f9ff3b00060440008784480067
:1009500002003b0060041400e0841c000988a3002e
:10096000070032008a817100828171006101640098
:100970008904d1000884d3008b05e80017003700f4
:100980000978a30013003a000b00e00013003400c4
:100990008b05e9000804440089844c000a44740073
:1009a0000978a3000d003a000b00e00007003400b6
:1009b0008b05e9000804440089844c0001003a00da
:1009c0000b0020000978a300f7ff32000001eb00c4
:1009d00002003700828171000a017800b900070027
:1009e0000cf0a70001f0a000020137006420e10034
:1009f00002003a00838f6c00020133000801be0040
:100a00000200be00fb003700889fbe008a9fbe0028
:100a10008c1f7800e6000700ed00330003866c00b1
:100a20006450e1002e0032006420e1003300320007
:100a30006150e1002f0032006120e10031003200fe
:100a400085855500eb07b000090020000804200050
:100a5000050037000804440089844c000a00310076
:100a60000603430087834b000001530081815b0034
:100a7000f8ff33000203be000800a0000804440091
:100a800089844c00f6ff3900c639dd00830173000c
:100a900001003200130020008904d1000884d30033
:100aa0000998a300050032000800a7000300a00079
:100ab0008904d1000884d3008b05e8008904d100a3
:100ac0000884d3000001eb000281d2007d00070002
:100ad00001f0a1000cf0a70001f0a000c500370054
:100ae0006420e100c70032000801be000200be0021
:100af000f7ff37006120e100c20032006000b8005b
:100b0000f3ff37000000200001f82700f0ff370056
:100b10000001be00910007000470a70003f0a100cf
:100b20006509b100160032000d0035006828e100ab
:100b300006003500f0ff2f00f1ff27000300e00062
:100b400013003b00010028000000050000004000e9
:100b5000818048008502e900fcff3a000800370068
:100b6000f88f420002003c008000eb00000005000e
:100b70008100d1000080d3008502e800fcff3a002c
:100b80000300e00002003b0060001000e08018005d
:100b9000000006000001be00700007000470a700fe
:100ba00003f0a10003f8a30013003a006509b100a7
:100bb00010003200090035006928e100020035000c
:100bc000010028000000050000004000818048006e
:100bd0008502e900fcff3a0000000600f88f4200a1
:100be000050035008100d1000080d3008502e800b7
:100bf000fcff3a00000006008000eb00000005004a
:100c0000889fbe008a9fbe000082700004027100af
:100c100004827100260032000004be000200be0003
:100c20006011b8006b092000950220000182cf00fe
:100c30000a0039000541b1000082cf0007003900e9
:100c40000541b1000982cf00040039000541b1001f
:100c50000882cf00010039000541b1000542520071
:100c6000120032000a003b008281710061016400c1
:100c70008100d1000080d3008984d3000884d30090
:100c80008b05e8000442e800f7ff3a000700370050
:100c90000804440089844c0000004800818048001a
:100ca0008b05e9000442e900f9ff3a00050007005e
:100cb0004f05be004f04be00000006006011b800e2
:100cc000cfff370081002000618055000b003d0000
:100cd0000b00200061fe2f000100e1001d00340028
:100ce00082817100610164008904d1000884d3000d
:100cf0000000e800faff3a00710020006100640083
:100d0000030070000200600009003200610444002a
:100d1000e0844c000988a500050032008b05e8003e
:100d20006808e10002003a008904d1000884d30079
:100d3000f20f20000258e10005003d00c75ddd0014
:100d4000f907b200898075000800780000000600ed
:100d50000bf827008b00780000000500c70ade00b2
:100d6000f107b200f50fb20008003200e1cf4200f7
:100d7000020032000170a00024000500810f700005
:100d8000010032000408050044000500810f7000d6
:100d900002003a00140005008502e900000040004e
:100da00081c04800fcff3b000170a000240005004a
:100db0000004be00e9ff07000003be000405be00fa
:100dc0000200be00e5ff0700844f7500000006002a
:100dd0000200be006450e100050036006420e1001e
:100de000020036000968a30001003a000800be00b6
:100df0000160a0004f0678004f05be004f04be0002
:100e000000000600f0ff2f00f1ff2700f9ff370078
:100e1000889fbe008a9fbe008c1f7800e4ff0700f9
:100e2000ebff330003866c006450e10024003200c5
:100e30006420e100270032006150e100220032000e
:100e40006120e100210032008b854200eb07b100f8
:100e50000134b800003ab8000804420089844a000e
:100e6000013ab8000030b8008880400009014a000b
:100e70000400330000004000818048000201490066
:100e80008b05e900c909dd00830170000100320013
:100e900013002000c814de004814dd004709de00fe
:100ea0001200b200c808de000884700085ff070049
:100eb00001f0a1000cf0a70001f0a000cdff370069
:100ec0006120e100cfff32000801be000200be0039
:100ed000f7ff37006150e100fcff3a00c9ff37001f
:100ee0006022b800060220000000d0008180d200fd
:100ef0000482d2008582d2000000a00002025200cb
:100f000083825a00030031000202420083824a00b9
:100f10000000a1000603e900f3ff3a00000006000c
:100f20000600fa00889fbe008a9fbe008c9fbe000c
:100f3000045c270005ae8300e08f52000b003a00ee
:100f4000e402420005ae8b0055ae8b0024029800ef
:100f500044ae8b00a44290000504a00025429800f6
:100f6000e44290000504a000654298006704400038
:100f70004244de004244dd0040ae83008d5d270028
:100f8000899d27008d845400240020008002780071
:100f9000811f7800110009008404d8008002fd0040
:100fa000cf007800050f78000882e80004024200b4
:100fb000140798000003eb00e4034400270798009f
:100fc000bc9d27000d0656000806460001003700ac
:100fd0000b007800204290006102620002003200a3
:100fe0000a0037001508780090027800254290002a
:100ff00061026200fbff320008024000848f520051
:1010000002003900e00f54004d003d0090057800cb
:10101000808f5500eeff3e008d8f55000300390094
:10102000045c2700848f5500e9ff390054ae83002b
:10103000840f500053003a00045c2700848f550051
:1010400050003a000603e800e10f5300e0ff3600cd
:101050001e027800840f540002003600890f5400ed
:10106000110039006143b800614ab900b0ff2f0098
:10107000010020000402500085825800840f5300b4
:10108000858f5b000a003d0000057800811f780015
:10109000110009000986d8000005fd00cf00780086
:1010a0008955b800030037001e0590000100370085
:1010b000080578000a007800ab000700e10f400047
:1010c00005003a002e0590000a007800a6000700ef
:1010d000e10f40002b00320054ae8300000a78007c
:1010e00054ae830064034200a4429000860f500077
:1010f000020032000504a000010037000504a10031
:1011000025429800640555000a0540000a08780049
:101110005aae8b00045c2700040d780055ae8300a6
:10112000254290000404a000a442980020429000b0
:101130000404a100244098000003eb00a4ff370042
:1011400044ae8b00848f5200070036001403be00ab
:1011500066ae8b0077ae8b00100a78008042eb0001
:1011600044ae83002542980047ae8300070878000c
:10117000204290000404a000244098006400400035
:10118000010037000000eb004f06be004f05be0017
:101190004f04be000080fa00000006000000fa00c4
:1011a0006400500044ae8300840f50000100310001
:1011b00040ae8b00204290000404a100244098001f
:1011c0000080fa00000006000000fa00889fbe00c0
:1011d0008a9fbe000004be00e08f540005003a0064
:1011e000e00f54003200320008007800ebff0700e7
:1011f00030003700e00f540004003a000900780086
:1012000047ff0700800478002a003700640254007a
:101210009405780068fa97006102620002003200cb
:1012200008007800ddff0700090078003cff070098
:1012300080047800e08f54001e003200888f540034
:101240001b00320069bd97000905550042d5de003c
:1012500088855500c2ddde000a0178008b0f55003d
:10126000010036000b0178004211dd008800780093
:101270000900780014000700888f54000d00310029
:101280004255dd000a854400880f550009003600ec
:101290000804550042c4de004244dd0008844400d6
:1012a00064ae830075ae8300048cbe00010037007d
:1012b00088047800090078004f05be004f04be0086
:1012c0000080fa00000006000000fa00000278002a
:1012d00002003700315a78000201e900e00f5100a6
:1012e000fcff3a000080fa00000006000000fa004f
:1012f0000100200090ae8b00a1ae8b0015c0b300a2
:10130000045d2700054a78000080fa00000006000e
:101310000000fa00045d27008042eb0094cf120029
:1013200002003a0010002000f0ff0700d2e624007f
:10133000631c240090ae8300a1ae83003000070040
:1013400094032300050020000002420081824a002d
:1013500094ae8b00a5ae8b000500780000f0a100d4
:101360000080fa00000006000000fa00889fbe001e
:1013700080047800b0ae8300e00f500004003a0013
:101380000f0007000084eb00e00f5000080035005c
:10139000b8ae8300e08f540005003200090044001d
:1013a00007000700e00f500001003d000084eb0043
:1013b000080078004f04be000080fa00000006001c
:1013c0000000fa00e00f500004003a00845d27009e
:1013d000b4ae8b0000027800060037000082eb00fc
:1013e000859d2700850f500002003e00b0ae8b00a7
:1013f0000002eb00040078000080fa000000060004
:10140000020ab900001bb9000200b80081004200c6
:0814100081004300000006000a
:020000040000fa
:101418006374000072000000686d00007200000034
:10142800232300000d0a0000040000000102000050
:0814380004000000ffd90000d0
:020000040000fa
:101440000800fa00889fbe008a9fbe00009fbe0071
:101450000297be00a45721003e04be002e05be0028
:10146000089abe000a92be001061a90000000000a8
:10147000840880000440a0000450a1008408880073
:10148000000000001021a9000000000010c1a90008
:10149000a45721005403be004402be000400be0055
:1014a0000601be00d6fd07000002be0002002000bb
:1014b000a36724000400be0053fd07000002be0025
:1014c0000200200003f023000400be00f1fc07002e
:1014d0000002be000400be00aefd07000002be0018
:1014e00004027800640888000002eb0034088800d9
:1014f0000042eb0004007800b0f5b70094088000cb
:101500000440a1000450a1009408880000000000dd
:101510001221a9000000000012c1a900a457210057
:101520005403be004402be000400be000601be001b
:10153000b3fd07000002be00020025003384240032
:101540000400be0030fd07000002be0002002000c3
:1015500003f023000400be00cefc07000002be0022
:101560000400be008bfd07000002be0004027800ec
:10157000740888000002eb00540888002c61a90060
:1015800000000000640980000440a0000450a10095
:1015900064098800000000002c21a9000000000060
:1015a0002cc1a900a45721005403be004402be0070
:1015b0000400be000601be0091fd07000002be004f
:1015c00002002000a36724000400be000efd0700f7
:1015d0000002be000200200003f023000400be0051
:1015e000acfc07000002be000400be0069fd07005d
:1015f0000002be0004027800440988000002eb00eb
:10160000140988000042eb0004007800b1f5b7002f
:101610004f05be004f04be000080fa000000060027
:101620000400fa00889fbe00008fbe0021e2a800df
:101630002342a800a45721005403be004402be0068
:101640000400be000601be006dfd07000004be00e0
:101650001e00be0099fd07000002be000401be008e
:101660000400be008bfc07000002be000200200048
:10167000031824000400be00e5fd07000002be00c0
:101680000401be000800be00dffc07000002be002f
:101690000200200003f023000400be007dfc0700d0
:1016a0000002be000200200003f823000400be0078
:1016b00077fc07000002be000400be0014fd070016
:1016c0000002be00040278004411880023e2a90051
:1016d0000000000023a2a9000000000014118000f7
:1016e0000460a1000470a100141188004f04be0022
:1016f0000080fa00000006000400fa00889fbe0087
:10170000008fbe0031e2a8003342a800a457210098
:101710005403be004402be000400be000601be0029
:1017200037fd07000004be001e00be0063fd070079
:101730000002be000401be000400be0055fc07000c
:101740000002be0002002000031824000400be00b6
:10175000affd07000002be000401be000800be008d
:10176000a9fc07000002be000200200003f02300d5
:101770000400be0047fc07000002be00020020007b
:1017800003f823000400be0041fc07000002be0075
:101790000400be00defc07000002be000402780068
:1017a000c411880033e2a9000000000033a2a900a0
:1017b00000000000941180000460a1000470a100ea
:1017c000941188004f04be000080fa00000006005b
:1017d0000200fa00004f78009e4278000582fb006c
:1017e0006102620004427800e04f520001003200c2
:1017f0000168a9009e4278000582fb006202620037
:10180000e00f52000100320003c8a9000080fa0076
:10181000000006000200fa00004f78009e427800a7
:101820000582fb006102620004427800e04f520032
:10183000010032000188a9009e4278000582fb0069
:1018400062026200e00f52000100320003e8a900ca
:101850000080fa00000006000200fa00004f780045
:101860009e4278000582fb0061026200044278001b
:10187000e04f5200010032000168a8009e4278004b
:101880000582fb0062026200e00f5200010032009c
:1018900003c8a8000080fa00000006000200fa0059
:1018a000004f78009e4278000582fb0061026200d2
:1018b00004427800e04f5200010032000188a80085
:1018c0009e4278000582fb0062026200e00f520037
:1018d0000100320003e8a8000080fa0000000600c2
:1018e0000200fa00004f78009e4278000582fb005b
:1018f0006102620004427800e04f52000c003200a6
:101900001411800004427800614262000482fb00ee
:10191000610262004b22dd0006408000f57f2f004f
:101920008502630004827200044088002168a800d8
:101930009e4278000582fb0062026200e00f5200c6
:101940000c00320094118000044278006142620071
:101950000482fb00610262004e22dd00164080001e
:10196000f5ff2b008502630004827200144088009a
:1019700023c8a8000080fa00000006000200fa0058
:10198000004f78009e4278000582fb0061026200f1
:1019900004427800e04f5200010032002188a80084
:1019a0009e4278000582fb0062026200e00f520056
:1019b0000100320023e8a8000080fa0000000600c1
:1019c0000200fa00004f78009e4278000582fb007a
:1019d0006102620004427800e04f520001003200d0
:1019e0002168a9009e4278000582fb006202620025
:1019f000e00f52000100320023c8a9000080fa0065
:101a0000000006000200fa00004f78009e427800b5
:101a10000582fb006102620004427800e04f520040
:101a2000010032002188a9009e4278000582fb0057
:101a300062026200e00f52000100320023e8a900b8
:101a40000080fa00000006000400fa002047980019
:101a50000042eb00044f78002e4290000482fb000d
:101a60006102620004427800e04f52000800320038
:101a7000054180000480200004826200e00f5200d3
:101a8000030032002e409000cdff07001e04a0008e
:101a90002e4290000482fb0062026200e00f5200be
:101aa0000800320015418000040024000482620016
:101ab000e00f5200030032002e409000c0ff0700ec
:101ac0001e14a0001e427800044078000080fa0036
:101ad000000006000400fa00204798000042eb00d6
:101ae000044f78002e4290000482fb0061026200e5
:101af00004427800e04f52000800320005418000a7
:101b00000400210004826200e00f52000300320052
:101b10002e409000aaff07001e24a0002e42900035
:101b20000482fb0062026200e00f520008003200f3
:101b3000154180000400280004826200e00f52007a
:101b4000030032002e4090009dff07001e34a000cd
:101b50001e427800044078000080fa000000060071
:101b60000400fa00204798000042eb00044f780080
:101b70002e4290000482fb00610262000442780061
:101b8000e04f52001f003200054180000400210098
:101b900004826200e00f52000b0032000541800019
:101ba0000480200004826200e00f52000600320030
:101bb0002168a900000000002188a9001e427800c9
:101bc000654f72000f0037000541800004002100be
:101bd00004826200e00f5200030032002188a90055
:101be0001e24a0000700370005418000048020006b
:101bf00004826200e00f5200020032002168a90056
:101c00001e04a0002e4290000482fb0062026200cb
:101c1000e00f52001f003200154180000400280030
:101c200004826200e00f52000b0032001541800078
:101c30000400240004826200e00f5200060032001b
:101c400023c8a9000000000023e8a9001e42780074
:101c50006a4f72000f003700154180000400280011
:101c600004826200e00f52000300320023e8a90062
:101c70001e34a00007003700154180000400240036
:101c800004826200e00f52000200320023c8a90063
:101c90001e14a0001e427800044078000080fa0064
:101ca000000006000200fa00004f7800114798007b
:101cb0001e4290000482fb00610262000442780030
:101cc000e04f52000c0032009e42780061c2620078
:101cd00061426200614262000482fb0061026200b4
:101ce0004b22dd0006418000f57f2f008502630056
:101cf00004827200044188001e4290000482fb00ae
:101d000062026200e00f5200100032009e42780032
:101d10000582fb006202620004f0a7000402ea00f0
:101d20000402ea004f22de00044278000482fb0035
:101d3000610262004e22dd0016418000f5ff2b009b
:101d40008502630004827200144188000080fa005a
:101d5000000006000200fa00004f780011479800ca
:101d60001e4290000482fb0061026200044278007f
:101d7000e04f5200100032009e4278000582fb00c6
:101d80006402620004f0a7000402ea000402ea0010
:101d90004f22de00044278000482fb0061026200f0
:101da0004c22dd0006418000f5ff2e008502630015
:101db00004827200044188001e4290000482fb00ed
:101dc00062026200e00f52000f0032009e42780073
:101dd0000582fb006802620004f0a7000402ea002a
:101de0000402ea004f22de00044278000482fb0075
:101df0004f22dd0016418000f5ff270085026300b9
:101e000004827200144188000080fa00000006007d
:101e10000400fa0020479800314798003e429000a5
:101e20000482fb006102620004427800e04f52002d
:101e300043003200044080004b22de006142620019
:101e400084427800044080004c22de00614262003f
:101e50000442420004cf42000168a9000188a900a1
:101e60002e42900061426200614262006142620063
:101e70000482fb00610262004b22dd00064180000b
:101e8000f57f2f0085026300048272000441880000
:101e90002e4290000482fb006402620004f0a7005e
:101ea0000402ea000402ea004f22de000442780045
:101eb0000482fb00610262004c22dd0006418000ca
:101ec000f5ff2e0085026300048272000441880041
:101ed0009e42780061c2620061426200614262001b
:101ee0000482fb00610262004b22dd00064080009c
:101ef000f57f2f0085026300048272000440880091
:101f00009e4278000582fb006202620004f0a70096
:101f10000402ea000402ea004f22de0004427800d4
:101f20000482fb00610262004c22dd00064080005a
:101f3000f5ff2e00850263000482720004408800d1
:101f40003e4290000482fb0062026200e00f5200f9
:101f500045003200144080004e22de0061426200e3
:101f600084427800144080004f22de000442780052
:101f70000442420004cf420003c8a90003e8a900bc
:101f80002e4290000482fb006202620004f0a7006f
:101f90000402ea000402ea004f22de000442780054
:101fa0000482fb00610262004e22dd0016418000c7
:101fb000f5ff2b0085026300048272001441880043
:101fc0002e4290000482fb006802620004f0a70029
:101fd0000402ea000402ea004f22de000442780014
:101fe0000482fb004f22dd0016418000f5ff270030
:101ff0008502630004827200144188009e427800ca
:1020000061c2620061426200614262000482fb00c0
:10201000610262004e22dd0016408000f5ff2b00b9
:102020008502630004827200144088009e4278009a
:102030000582fb006202620004f0a7000402ea00cd
:102040000402ea004f22de00044278000482fb0012
:102050004f22dd0016408000f5ff27008502630057
:1020600004827200144088000080fa00000006001c
:102070000200fa00004f7800114798001e429000bd
:10208000e14f52000a003a000000000015118000e4
:102090000420200004826200e00f5200fbff3a009f
:1020a0009e4278000582fb00241188000c00370056
:1020b0001e429000e24f520009003a00000000006a
:1020c000951180000420200004826200e00f52007d
:1020d000fbff3a009e4278000582fb00a4118800b5
:1020e0000080fa00000006000200fa00004f7800ad
:1020f0001e427800e14f52000d003a00000000003f
:102100001411800061026200e00f5200fcff3200f7
:102110001411800062026200e00f520001003200e0
:102120002222a900341180000442780011003700f7
:102130001e427800e24f52000d003a0000000000fd
:102140009411800061026200e00f5200fcff320037
:102150009411800062026200e00f52000100320020
:102160003222a900b4118000044278000100370037
:102170000042eb00044078000080fa0000000600f6
:102180000200fa00004f78001e427800e14f520032
:1021900004003a0014118000044278006142620099
:1021a000080037001e427800e24f520004003a0057
:1021b00094118000044278006142620001003700ff
:1021c0000042eb00044078000080fa0000000600a6
:1021d0000600fa0020079800045b210014427800f2
:1021e000e04f520022003a0014c0b3000002fd008c
:1021f000b0f5b7000002fd000002eb0034088800d3
:1022000011e1a8006022b800048fbe000d00370065
:102210000002eb003408880000e8a900000000007c
:10222000054080000408200004826200e00f520094
:10223000fbff320014002000050020001e0f4200aa
:102240005e974a002e02900005002000be0f52004b
:10225000ae8f5a00eeff3e0011e1a9000042eb00f4
:102260000002fd00b0f5b7000002fd0001003700dc
:10227000000000000080fa00000006000600fa00de
:10228000200798000002eb005408880013e1a80022
:102290006022b800048fbe000d0037000002eb0082
:1022a000540888000108a9000000000005408000d3
:1022b0000410200004826200e00f5200fbff320095
:1022c00014002000050020001e0f42005e974a0007
:1022d000ae029000a4002000809fbe001100090003
:1022e0008482d80000027800810278004f00be008e
:1022f00005002000be0f5200ae8f5a00e7ff3e00df
:1023000013e1a9000080fa00000006000600fa00b0
:1023100020079800145b210014427800e04f52001f
:1023200022003a0014c0b3000002fd00b1f5b7006e
:102330000002fd000002eb00140988002de1a80056
:102340006022b800048fbe000d0037000002eb00d1
:102350001409880005e8a90000000000254080005d
:102360000400280004826200e00f5200fbff3200ec
:1023700014002000050020001e0f42005e974a0056
:102380002e02900005002000be0f5200ae8f5a00b2
:10239000eeff3e002de1a9000042eb000002fd002f
:1023a000b1f5b7000002fd00010037000000000099
:1023b0000080fa00000006000200fa00889fbe00bc
:1023c000000f7800240880000440a0000450a00002
:1023d00024088800a45721005403be004402be0014
:1023e0000400be000601be0005fa07000004be009e
:1023f0001e027800050020000400be002ffa07002e
:102400000002be000401be000800be0080fa070002
:102410000002be0002002000a38f24000400be00c2
:1024200079f907000002be000200200003f023003b
:102430000400be0017f907000002be000400be0041
:10244000b3f907000002be000402780014088800f7
:102450000002eb00040888004f04be000080fa0070
:10246000000006000000fa000441800068026200db
:10247000e00f520004003a000002eb00040888005c
:102480002068a80005e1a8000080fa00000006000e
:102490000000fa000441800068026200e00f520070
:1024a000040032002068a90005e1a9000002eb0049
:1024b000040888000080fa00000006000000fa000e
:1024c000044180004322de00614262000440780043
:1024d0000080fa00000006000000fa0004418000bd
:1024e00068026200e00f520002003a000042eb0076
:1024f00002003700e6ff070014c0b3000440780074
:102500000080fa00000006000200fa00004f780088
:102510000441800068026200e00f520008003a00a7
:102520001e427800e04f5200050032000002eb002e
:10253000040888002068a80005e1a8000b00370007
:102540000441800068026200e00f52000700320080
:102550001e427800e04f520004003a002068a900b3
:1025600005e1a9000002eb00040888000080fa00e1
:10257000000006000000fa000002eb0004088800da
:102580000080fa00000006000600fa00889fbe00e6
:1025900020079800a45721005403be004402be0047
:1025a0000400be000601be0095f907000004be004d
:1025b0002e029000050020000400be00bff90700b5
:1025c0000002be000401be000800be0010fa0700b1
:1025d0000002be0002002000a34f24000400be0041
:1025e00009f907000002be000400be0069f90700f7
:1025f0000002be00048fbe0021e1a9001fe1a90076
:10260000000000001e61a80000000000f408800027
:102610000440a1000450a100f4088800000000005c
:102620001e21a900000000001ec1a9001e02be005c
:10263000402ade000500200004027800e40888003b
:102640001e027800d40888000002eb00c40888004d
:102650000002eb00a40888001fe1a8004f04be00a0
:102660000080fa00000006000000fa00154180001a
:102670000400210004826200e00f520006003a00cc
:102680000002eb00c40888000002eb00a4088800e8
:102690002388a8001fe1a8000080fa0000000600bf
:1026a0000000fa001541800004002100048262004d
:1026b000e00f5200060032002388a9001fe1a900a4
:1026c0000002eb00c40888000002eb00a4088800a8
:1026d0000080fa00000006000000fa000002eb0093
:1026e000c40888000002eb00a40888000080fa00fb
:1026f000000006000200fa00004f78009e427800b9
:1027000067c262000482fb004d22dd0016198000c2
:10271000f5ff21008502630004827200141988000d
:102720000080fa00000006000200fa00004f780066
:102730001e427800e14f520002003a002143a800f7
:10274000010037002143a9000080fa0000000600c4
:102750000000fa00041980000450a0000460a000ea
:102760000470a0000419880025198000f40f2e00c1
:10277000048262002419880000000000a457210090
:102780005403be004402be000400be000601be00a9
:102790001bf907000002be0002402200439f2400f4
:1027a0000400be0098f807000002be000400be004e
:1027b000d7f807000002be00040278000442780047
:1027c000754242000400780024e3b70021e3a8002a
:1027d0000080fa00000006000200fa00004f7800b6
:1027e0009e4278007fc262000482fb007f0262008a
:1027f0004619800005fe2f008502630004827200e6
:10280000441988000080fa00000006000000fa0069
:102810002023a8000000000004198000610262006b
:10282000e00f5200fcff32002003a90004188000d2
:10283000050020000400be000080fa000000060031
:102840000400fa00008fbe001e02be00e00f52001e
:10285000e08f5a0006003a001519800034f82f0066
:102860000482620014198800000000002223a900dd
:102870000080fa00000006000200fa00004f780015
:102880009e4278000582fb0062026200e00f520067
:102890000200320042c2a8000100370042c2a90073
:1028a0009e4278000582fb0061026200e00f520048
:1028b0003c003a0042a2a8009e4278000582fb003c
:1028c0007c026200e00f520005003a001412800002
:1028d0000400a0000410a000141288001d0037009e
:1028e0009e4278000582fb007c026200e40f5200e9
:1028f00005003a00141280000400a1000410a0009a
:1029000014128800130037009e4278000582fb00f5
:102910007c026200e80f520005003a0014128000a9
:102920000400a0000410a100141288000900370060
:102930009e4278000582fb007c026200f00f52008c
:1029400004003a00141280000400a1000410a10049
:10295000141288009e4278000582fb004522de00aa
:102960000442780004c2ea006742620067426200e3
:10297000674262000482fb00670262004222dd00bf
:102980001612800035fe2f0085026300048272005b
:102990001412880040c2a9000000000041e2a80013
:1029a0000d0037000002eb004412880042a2a9008b
:1029b0004322a9009e4278000582fb00700262005b
:1029c000e00f520001003a0042e2a80040c2a90014
:1029d0000000000041e2a8000080fa0000000600ac
:1029e0000200fa00004f78009e4278000582fb004a
:1029f00062026200e00f52000200320062c2a800d0
:102a00000100370062c2a9009e4278000582fb00e7
:102a100061026200e00f52003c003a0062a2a8008e
:102a20009e4278000582fb007c026200e00f5200ab
:102a300005003a00141380000400a0000410a00058
:102a4000141388001d0037009e4278000582fb00a9
:102a50007c026200e40f520005003a00141380006b
:102a60000400a1000410a000141388001300370014
:102a70009e4278000582fb007c026200e80f520053
:102a800005003a00141380000400a0000410a10007
:102a900014138800090037009e4278000582fb006d
:102aa0007c026200f00f520004003a001413800010
:102ab0000400a1000410a100141388009e427800b5
:102ac0000582fb004522de000442780004c2ea00d1
:102ad0006742620067426200674262000482fb0054
:102ae000670262004222dd001613800035fe2f00cf
:102af00085026300048272001413880060c2a9007a
:102b00000000000061e2a8000e0037000002eb00a8
:102b10004413880062a2a900000000006322a900fb
:102b20009e4278000582fb0070026200e00f5200b6
:102b300001003a0062e2a80060c2a90000000000a3
:102b400061e2a8000080fa00000006000200fa001e
:102b5000000f780040c2a900151280000440200038
:102b600004826200e00f5200030032001e0278006f
:102b70004412880004003700f40f20001e02620097
:102b8000441288000000000004128000610262000c
:102b9000e00f5200fcff32004412800005002000cc
:102ba0000400be000080fa00000006000200fa00e7
:102bb000000f780060c2a9001513800004402000b7
:102bc00004826200e00f5200030032001e0278000f
:102bd0004413880004003700f40f20001e02620036
:102be00044138800000000000413800061026200aa
:102bf000e00f5200fcff320044138000050020006b
:102c00000400be000080fa00000006000200fa0086
:102c1000000f78001e007800e4ff07000080fa0033
:102c2000000006000200fa00000f78001e00780085
:102c3000c6ff07000080fa00000006000000fa004e
:102c4000041280000442780061426200044078006f
:102c50000080fa00000006000000fa000413800063
:102c60000442780061426200044078000080fa006b
:102c7000000006000000fa0040a7a8000080fa004b
:102c8000000006000000fa0040a7a9000080fa003a
:102c9000000006000000fa000060fe000080fa005c
:102ca000000006000200fa00000f78001e02780003
:102cb000047088000080fa00000006000200fa009c
:102cc000000f78001e027800847088000080fa00ef
:102cd000000006000200fa00000f78001e027800d3
:102ce000047188000080fa00000006000200fa006b
:102cf000000f78001e027800847188000080fa00be
:102d0000000006000200fa00000f78001e027800a2
:102d1000047288000080fa00000006000200fa0039
:102d2000000f78001e027800847288000080fa008c
:102d3000000006000200fa00000f78001e02780072
:102d4000047388000080fa00000006000200fa0008
:102d5000004f780045e7a900000000004567a90082
:102d6000000000009e42780067c262000482fb00ff
:102d7000670262004c22dd00263a8000f5ff280041
:102d80008502630004827200243a8800000000007b
:102d90004567a8000080fa00000006000a00fa005b
:102da000000278003107980042079800ce02900098
:102db000e7826200e08f5200050032004e0390006f
:102dc00085ff2f0085026300e882420045079800d6
:102dd000be029000c82ade00854278000500780017
:102de000ccf4b700be029000854278000500780060
:102df000cdf4b700ce029000c82ade0085427800ec
:102e000005007800d0f4b700ce029000854278002b
:102e100005007800d1f4b700454c2100050f78007b
:102e20000501200015079800ce029000ea824200ba
:102e3000250798001e03be00068abe00ae03900060
:102e400027029800040078000080fa0000000600c5
:102e50000800fa0000027800614798006e40900078
:102e6000dcf4b700454d2100050f780095002000e7
:102e70001507980065002000250798001e03be0076
:102e8000068abe00ae039000270298000400780076
:102e90000080fa00000006000800fa000002780036
:102ea000614798006e409000e1f4b700d54d2100d5
:102eb000050f7800550020001507980055002000e8
:102ec000250798001e03be00068abe00ae039000d0
:102ed00027029800040078000080fa000000060035
:102ee0000800fa000002780031079800be02900046
:102ef000c82ade008542780005007800e7f4b700b4
:102f0000be0290008542780005007800e8f4b70022
:102f1000254e2100050f7800750020001507980048
:102f200055002000250798001e03be00068abe003b
:102f3000ae03900027029800040078000080fa0099
:102f4000000006000000fa000042eb0004007800d8
:102f5000e9f4b7000002eb0054a788000080fa00f3
:102f6000000006000000fa000042eb0004007800b8
:102f7000e9f4b7000002eb0054a788000080fa00d3
:102f8000000006000200fa00004f78001e407800a2
:102f9000e9f4b70054a78000e00f520002003200ad
:102fa00054a78000040001000080fa000000060021
:102fb0000000fa00944e2100144278000482fb00c5
:102fc0000402ea004f22de00044278000440780048
:102fd0000080fa00000006000000fa00944e210074
:102fe00014427800044078000080fa0000000600d7
:102ff0000000fa000042eb0004007800e9f4b7009a
:103000000080fa00000006000200fa00000f7800bd
:103010001e02780054a788000080fa000000060015
:103020000000fa000002eb0024ab8800c012200070
:103030008e0e07009b0e0700f60d07000080fa00b9
:10304000000006000000fa000002eb0024ab88003c
:10305000f00d07000080fa00000006000000fa00f2
:1030600024ab800004f0a7000402ea000402e90097
:103070004f22de0004427800044078000080fa000d
:10308000000006000200fa00000f7800f3ff0700be
:1030900000427800e04f5200060032001e02780025
:1030a00024ab88007f0e0700760e0700cd0d0700c9
:1030b00001003700000000000080fa000000060058
:1030c0000000fa00770e07006e0e0700c50d07001e
:1030d0000080fa00000006000000fa000002eb0089
:1030e00024ab8800cb0d07000080fa00000006002a
:1030f0003600f800809fbe00829fbe00849fbe0005
:10310000869fbe000000fa005e0e070024ab800020
:10311000e00f52000300320024ab800004000100e5
:1031200001003700ecff07000080fa004f03be00eb
:103130004f02be004f01be004f00be003600f90036
:10314000004006000000fa000042eb000400780096
:10315000ecf4b7000002eb0074a788000002eb005b
:1031600034ab88000002eb0074a788000002eb007b
:1031700084a788000002eb0094a788000002eb00ff
:10318000a4a788000080fa00000006000000fa00f2
:10319000ecff070000602900312b070020c0b300be
:1031a0009cf90700830d0700150e0700690d070045
:1031b0000080fa00000006000000fa007d0d070004
:1031c000640d070020c0b30092f907000c0e070041
:1031d00031e2a900dbff07000080fa0000000600d2
:1031e0000000fa00c44e2100144278000482fb0063
:1031f0000402e9004f22de00044278000440780017
:103200000080fa00000006000a00fa00000f7800b3
:103210001107980022079800330798004407980088
:10322000efff070000427800e04f5200120032002a
:1032300014c0b3000002fd00ecf4b7000002fd0072
:103240001e02be0034ab880045ab8800ae02900081
:1032500055ab88000002eb0074a788003e02900086
:1032600084a78800ce02900095a78800f70d07007c
:10327000440d070001003700000000000080fa0044
:10328000000006000000fa0093ff0700490d070048
:10329000300d0700a4a78000e00f520004003200a8
:1032a000a5a7800034ab8000040078000500010071
:1032b0000042eb0004007800ecf4b7000002eb00e1
:1032c00034ab88000002eb0074a788000080fa008d
:1032d000000006003600f800809fbe00829fbe00fe
:1032e000849fbe00869fbe000000fa0020c0b3008d
:1032f00048f9070034ab800075a780000502420042
:10330000144278008502e80075a7880021c0b30048
:103310000440780056fb070045ab800074a780008e
:10332000848f520010003e00526ea9000000000081
:103330000002eb0074a7880024c0b3000002fd0067
:10334000ecf4b7000002fd001a0d070043ff070070
:1033500000427800e04f5200020032002094210029
:1033600048ff0700ef0c07000080fa004f03be0083
:103370004f02be004f01be004f00be003600f900f4
:10338000004006003600f800809fbe00829fbe000d
:10339000849fbe00869fbe000000fa00980d0700c3
:1033a00020c0b30050fb0700004278000002fd007f
:1033b0006ef5b7000002fd0074a780000402e8006b
:1033c00074a7880074a78000e10f520009003a003a
:1033d000e55621009542780064c7b30084cf5200bf
:1033e000040032000002eb0074a7880034ff0700dd
:1033f0002700370094a78000e00f52000d00320034
:1034000096a7800074a780008402e900e45621009a
:10341000144278008500780004407800060001001e
:1034200000427800e04f52000200320054ab8000ae
:1034300074a7880055ab800074a78000848f520069
:1034400010003e00526ea800000000000042eb0099
:103450000002fd00ecf4b7000002fd000002eb00ea
:1034600074a78800bb0c07001bff070084a780001f
:10347000e00f52000500320084a780000400010024
:10348000030037000eff07000100370000000000b6
:103490000080fa004f03be004f02be004f01be0085
:1034a0004f00be003600f900004006000200fa009e
:1034b000000f78001e027800a4a788000080fa00a0
:1034c000000006000200fa00c3fe07000042780078
:1034d000044f78001e4278008482fb00040f200015
:1034e0008482620004052000848f520003003a00a9
:1034f0000042eb0004007800f6f4b7000080fa0008
:10350000000006000000fa000042eb000400780012
:10351000f6f4b7000042eb0004007800f7f4b700bf
:103520000042eb0004007800f8f4b7000042eb0022
:1035300004007800f9f4b7000042eb0004007800c2
:10354000faf4b7000002eb00e4a788000002eb00e9
:10355000f4a788000002eb0004a888000080fa00ad
:10356000000006000000fa00644f210014427800b9
:10357000044078000080fa00000006000000fa0015
:10358000f8ff0700004278000482fb000402e90013
:103590004f22de0004427800044078000080fa00e8
:1035a000000006000000fa00744f21001442780069
:1035b000044078000080fa00000006000000fa00d5
:1035c000844f210014427800044078000080fa0003
:1035d000000006000000fa00e4a780000400780064
:1035e0000080fa00000006000000fa00944f21005d
:1035f00014427800044078000080fa0000000600c1
:103600000000fa0004a88000040078000080fa009e
:10361000000006000000fa000042eb000400780001
:10362000f8f4b7000080fa00000006000000fa007d
:103630000042eb0004007800f9f4b7000080fa00c3
:10364000000006000000fa00844f210014427800b8
:10365000e04f52000a003a00944f210014427800d3
:10366000e04f520006003a00c4ff07000042780015
:10367000e04f520002003200140020000100370029
:103680000002eb0004427800044078000080fa0059
:10369000000006000200fa00000f78002d0c070061
:1036a000d44d21009e027800848f520006003a001b
:1036b0000042eb0004007800f7f4b70010c5b30037
:1036c00030fe07002b003700444821009e0278009e
:1036d000848f520003003a0020c5b30029fe070082
:1036e00024003700044921009e027800848f520094
:1036f00003003a0030c5b30022fe07001d0037006a
:10370000444c21009e027800848f520009003a0048
:1037100040c5b3001bfe07000002eb0014a88800a0
:103720000002eb00f4a788000002eb0004a8880068
:1037300010003700c44921009e027800848f520097
:1037400003003a0050c5b3000efe07000900370021
:10375000a44721009e027800848f520003003a00a3
:1037600060c5b30007fe07000200370070c5b30054
:1037700004fe0700a44f210014427800e04f5200dd
:1037800001003200a10207000080fa0000000600dc
:103790000400fa00004f7800110798001e02900004
:1037a000e70f520005003a009e4278000582fb00b8
:1037b0004822dd00e4a78800080037001e029000c0
:1037c000e80f520005003a001e4278008482fb0098
:1037d000e4a7800004824200e4a788000042eb00d6
:1037e000044078000080fa00000006000000fa00a3
:1037f0007bfe070000427800e04f520012003a00c2
:10380000644f2100144278000482fb00f10f520043
:1038100007003200f20f520008003200f00f520091
:1038200053003a0070c1b300d6fd070055003700c1
:1038300080c1b300d3fd07005200370090c1b30030
:10384000d0fd07004f003700644f2100144278007c
:103850000482fb00f20f52000e003200f30f520000
:1038600016003200f00f520022003a0024c1b300cb
:1038700004007800f6f4b7000002eb0063bf2100fb
:1038800050a4800061a4800072a480005efe070046
:103890003c00370034c1b30004007800f6f4b700f0
:1038a00084bc210063bf2100b0a48000c1a48000bb
:1038b000d2a4800054fe0700320037000042eb0023
:1038c0000002fd00f6f4b7000002fd0014c0b300d2
:1038d0000002fd00f8f4b7000002fd0024a88000fb
:1038e000e00f52002400320024a8800004000100f0
:1038f00024003700644f210014427800e04f52004a
:1039000003003a0010c1b3009efd07001d00370000
:10391000654f21009542780004c2b30084cf520065
:1039200003003a0020c1b30096fd070015003700e0
:10393000654f21009542780004c3b30084cf520044
:1039400003003a0030c1b3008efd07000d003700c0
:10395000654f21009542780004c4b30084cf520023
:1039600007003a0040c1b30086fd0700050037009c
:1039700000000000030037000000000001003700d5
:10398000000000000080fa00000006000a00fa00b3
:103990006047980041079800844f21001442780046
:1039a000e04f52000200320014c0b3003a0037006a
:1039b000644f210014427800e04f520002003200b0
:1039c00014c0b3003400370005fe07000042780041
:1039d000e04f520002003a0014c0b3002e0037003e
:1039e0004e00900020a88800ee42900024c2b30050
:1039f00084cf5200080032006e429000f14f520016
:103a0000050032006e429000e04f5200020032008a
:103a100024c2b30064479800744f21001442780018
:103a2000ee42900084cf52000a003a0024c1b30055
:103a300004007800f6f4b7000002eb0063bf210039
:103a400050a4800061a4800072a48000eefd0700f5
:103a50001000370004c1b30004007800f6f4b7008a
:103a60006e409000f7f4b700744f210014427800c4
:103a7000844078000e00780007fd07000002eb008c
:103a800063bf21001e0078009e0090002e01900070
:103a9000ddfd07000042eb00044078000080fa00e2
:103aa000000006000400fa00004f7800110798009b
:103ab0001e029000e40f52001200360004a880009d
:103ac000e50242001e029000848f52000d00360075
:103ad000f5a780001e029000650252000482420099
:103ae0001e4a780014a88000e00f52000500320042
:103af00014a8800015a88000950278008502e800cf
:103b0000050a78000042eb00044078000080fa00cb
:103b1000000006000000fa00644f21001442780003
:103b20008482fb0004022000848f52000e003a00c1
:103b30000042eb000002fd00f6f4b7000002fd00b9
:103b400014c0b3000002fd00f9f4b7000002fd004c
:103b500034a88000e00f52003600320034a8800004
:103b60000400010036003700644f21001442780041
:103b7000e04f520003003a0010c2b30001fd0700fd
:103b80002f003700644f210014427800f04f52009c
:103b900003003a0020c2b300fafc070028003700f7
:103ba000644f210014427800f14f520003003a00a4
:103bb00030c2b300f3fc070021003700644f21003e
:103bc00014427800f24f520003003a0040c2b300a2
:103bd000ecfc07001a003700644f21001442780003
:103be000f34f520003003a0050c2b300e5fc070057
:103bf00013003700654f21009542780004c3b300dd
:103c000084cf520003003a0060c2b300ddfc07001d
:103c10000b003700654f21009542780004c4b300c3
:103c200084cf520005003a0070c2b300d5fc0700f3
:103c30000300370000000000010037000000000012
:103c40000080fa00000006001000fa00300798001b
:103c5000410798005207980063079800740798007e
:103c6000844f210014427800e04f520004003200db
:103c7000944f210014427800e04f520002003200bd
:103c800014c0b3002d003700644f210014427800a7
:103c9000e04f52000200320014c0b300270037008a
:103ca0004ffd070000427800e04f520002003a004a
:103cb00014c0b300210037004e029000670262007a
:103cc000e00f52000200320014c0b3001b003700a6
:103cd0007e02900034a888003e029000f4a788007d
:103ce0006e02900004a888005e02900014a888006c
:103cf000f4a78000e00f520002003a0014c0b300a5
:103d00000e00370004c2b30004007800f6f4b700d8
:103d10006e019000ce0090000e0078001ffc07009e
:103d200024d52100a3d821001e0078009e00900019
:103d30002e01900034fd07000042eb0004407800a3
:103d40000080fa00000006000000fa0014a88000bd
:103d5000e00f52000300320014a880001402780023
:103d6000010037000002eb00040078000080fa0038
:103d7000000006000000fa00644f210014427800a1
:103d80008482fb0004032000848f520012003a005a
:103d90000042eb000002fd00f6f4b7000002fd0057
:103da0000042eb000002fd00f8f4b7000002fd0045
:103db0000042eb000002fd00f9f4b7000002fd0034
:103dc00044a88000e00f52003600320044a8800072
:103dd0000400010036003700644f210014427800cf
:103de000e04f520003003a0010c3b30065fc070027
:103df0002f003700644f210014427800f04f52002a
:103e000003003a0020c3b3005efc0700280037001f
:103e1000644f210014427800f14f520003003a0031
:103e200030c3b30057fc070021003700644f210066
:103e300014427800f24f520003003a0040c3b3002e
:103e400050fc07001a003700644f2100144278002c
:103e5000f34f520003003a0050c3b30049fc07007f
:103e600013003700654f21009542780004c2b3006b
:103e700084cf520003003a0060c3b30041fc070046
:103e80000b003700654f21009542780004c4b30051
:103e900084cf520005003a0070c3b30039fc07001c
:103ea00003003700000000000100370000000000a0
:103eb0000080fa00000006000200fa00000f7800ff
:103ec000844f210014427800e04f52000400320079
:103ed000944f210014427800e04f5200020032005b
:103ee00014c0b30018003700644f2100144278005a
:103ef000e04f52000200320014c0b300120037003d
:103f0000b7fc070000427800e04f520002003a0080
:103f100014c0b3000c0037001e02780044a88800cb
:103f200004c3b30004007800f6f4b7000002eb000d
:103f3000a3eb210010a5800021a5800032a5800000
:103f4000b1fc07000042eb00044078000080fa005a
:103f5000000006000000fa00644f210014427800bf
:103f60008482fb0004042000848f52000d003a007c
:103f70000042eb000002fd00f8f4b7000002fd0073
:103f80000042eb000002fd00f9f4b7000002fd0062
:103f90000042eb000002fd00f6f4b7000002fd0055
:103fa0003b003700644f210014427800e04f52007c
:103fb00003003a0010c4b300f2fb070034003700de
:103fc000644f210014427800f04f520003003a0081
:103fd00020c4b300ebfb07002d003700644f210025
:103fe00014427800f14f520003003a0030c4b3008d
:103ff000e4fb070026003700644f210014427800dc
:10400000f24f520003003a0040c4b300ddfb07004a
:104010001f003700644f210014427800f34f520014
:1040200003003a0050c4b300d6fb07001800370065
:10403000654f21009542780004c2b30084cf52003e
:1040400003003a0060c4b300cefb07001000370045
:10405000654f21009542780004c3b30084cf52001d
:1040600003003a0070c4b300c6fb07000800370025
:10407000644f210014427800f04f420003003a00e0
:1040800080c4b300bffb0700010037000000000040
:104090000080fa00000006000000fa0050fc070053
:1040a00000427800e04f520002003a0014c0b30012
:1040b00010003700644f210014427800e04f520096
:1040c0000200320014c0b3000a00370004c4b30079
:1040d00004007800f6f4b7000002eb00a3fa210018
:1040e000f0a3800001a4800012a4800046fc070019
:1040f0000042eb00044078000080fa000000060057
:104100000600fa000042eb00044f78000002eb00ca
:10411000140798000002eb0024079800c456210001
:10412000144278000442e8000002fd006cf5b7007c
:104130000002fd00c456210014427800f14f5200e5
:10414000130036000042eb000002fd006cf5b700e2
:104150000002fd000042eb000002fd006df5b7001b
:104160000002fd000042eb000002fd00f6f4b70083
:104170000002fd0064a88000e00f5200020032003f
:1041800064a8800004000100d3fb07001d00370075
:10419000d456210014427800e04f520015003a0036
:1041a000c456210014427800eb4f52001100360033
:1041b000fad4bf00004f780054a88000140798007c
:1041c00060a8800020079800410007001e4078008a
:1041d000faf4b7001e02900054a888002e00900048
:1041e00060a8880014c0b3000002fd006df5b700a0
:1041f0000002fd00b8fb070000082200a1fb070039
:10420000000000000080fa00000006000600fa002e
:10421000fad4bf00004f780054a88000140798001b
:1042200060a880002007980054a88000e00f52008a
:104230000200320054a88000040001003900070089
:104240001e407800faf4b7001e02900054a88800bf
:104250002e00900060a8880004cfb300040078000e
:10426000f6f4b7000008220086fb07000042eb00ce
:10427000044078000080fa00000006000200fa0006
:10428000004f78001e407800faf4b7000080fa0072
:10429000000006000000fa00a44f2100144278003c
:1042a000044078000080fa00000006000400fa00d4
:1042b000000f7800110798001e02780054a88800ab
:1042c0001e02900064a888000080fa00000006002a
:1042d0000000fa00adfb070051fb070019fb0700c7
:1042e00088fc07000002eb0024a888000002eb0015
:1042f00034a888000002eb0044a888000002eb000c
:1043000054a888000002eb0064a8880020a62100c1
:104310003dfb0700a0b4210064fc07000080fa0008
:10432000000006000000fa0076fc07000002eb0027
:1043300024a888000002eb0034a888000002eb00eb
:1043400044a888000002eb0054a888000002eb009b
:1043500064a888000000eb002bfb07000000eb00c6
:1043600052fc0700fffa070036fb070092fb07002c
:104370000080fa00000006000000fa0007000700b5
:10438000680107007f0207000080fa0000000600b5
:104390000000fa000080fa00000006000200fa00a7
:1043a0000002eb00040f78000002eb00040f78001d
:1043b000180037008040eb0090c1b300fe0b0700ef
:1043c00000427800e04f52000c003a0000c2b300f7
:1043d0002e0c070000427800e04f520009003a001e
:1043e0000040eb00290c070000427800e04f52002b
:1043f00006003a001c0c070009003700000000000e
:10440000030037000000000001003700000000003a
:104410001e0fe8001e027800e20f5200e5ff340094
:10442000401f20003b3007000002eb00040f780023
:104430003b0037008040eb0090c1b300de0b07006b
:1044400000427800e04f520025003a0000cab30055
:104450000e0c070000427800e04f520022003a00a4
:1044600070c2b300090c070000427800e04f520010
:104470001f003a000040eb00040c070000427800e7
:10448000e04f52001c003a000040eb00ff0b070019
:1044900000427800e04f520019003a000040eb0063
:1044a000fa0b070000427800e04f520016003a0075
:1044b0000040eb00f50b070000427800e04f52008f
:1044c00013003a000040eb00f00b070000427800b8
:1044d000e04f520010003a00e30b070013003700d2
:1044e000000000000d003700000000000b00370046
:1044f000000000000900370000000000070037003e
:104500000000000005003700000000000300370035
:104510000000000001003700000000001e0fe8004e
:104520001e027800e20f5200c2ff34000080fa0041
:10453000000006000000fa000080fa0000000600fb
:104540000600fa00000f7800110798002207980073
:104550008000eb000e007800ec2407000042780099
:104560000482fb00f00f520003003200f10f5200f2
:104570000500320008003700a035a800a055a800ab
:104580000042eb0005003700a035a900a055a800a7
:104590000042eb000100370014c0b3000440780073
:1045a0000080fa00000006000800fa0030079800ba
:1045b00004ad800064026200e00f5200130032007c
:1045c000110020003e009000ba2f070004ad8000cb
:1045d00062026200e00f52000500320002c1b30027
:1045e0008000eb003e00900091240700040037009b
:1045f00012c1b3008000eb003e0090008c24070045
:10460000a055a9000042eb009900370004ad8000de
:1046100061026200e00f5200940032000042eb00a1
:10462000044f7800160037008040eb0090c1b300c3
:10463000610b070000427800e04f52000c003a0086
:1046400080cab300910b070000427800e04f52008f
:1046500009003a0011c0b30090c1b3006c0b070011
:1046600000427800e04f520009003200030037009a
:104670000000000001003700000000001e4fe800ad
:104680001e427800e24f5200e7ff3600010037007b
:10469000000000001e427800e34f52000e003a0076
:1046a000210020003e009000822f070000c1eb0097
:1046b0008000eb003e0090005d2407000041eb000d
:1046c000110020003e00900059240700a015a90009
:1046d0000042eb0066003700710020003e009000b1
:1046e000742f07000041eb008000eb003e009000bb
:1046f0004f2407000040eb00720b070000427800d7
:10470000144798000040eb006e0b07000042780051
:10471000244798001e419000310020003e00900088
:10472000432407002e419000410020003e009000ed
:104730003f2407000040eb00620b070000427800b6
:10474000144798000040eb005e0b07000042780021
:10475000244798002e4290000482fb002407980012
:104760002e0290004822dd00240798001e4290008f
:104770000482fb00ae0290000482720024079800bd
:104780002e0290000402ea00240798002e029000f6
:10479000144798002e0290004822de00240798005b
:1047a0002e029000244798001e4190001100200026
:1047b0003e0090001e2407002e41900021002000a2
:1047c0003e0090001a2407000040eb003d0b07005c
:1047d000004278001447980010c0b300390b07005e
:1047e00000427800244798002e4290000482fb008b
:1047f000240798002e0290004822dd00240798002c
:104800001e4290000482fb00ae02900004827200ff
:10481000240798002e0290000402ea002407980062
:104820002e029000144798002e0290004822de00cd
:10483000240798002e029000244798001e41900003
:10484000510020003e009000f92307002e41900007
:10485000610020003e009000f5230700020b0700d6
:10486000a015a9000042eb000100370014c0b300fe
:10487000044078000080fa00000006000000fa0002
:104880000080fa00000006000000fa0004ad80007d
:104890000402d100614262000482fb0061026200f6
:1048a00006ad8000e5ff2f008502630004827200e0
:1048b00004ad88000080fa00000006000000fa0045
:1048c0000080fa00000006000200fa00000f7800e5
:1048d00004ad80000402d100614262000482fb004a
:1048e0006102620006ad8000e5ff2f0085026300d3
:1048f0000482720004ad88001e0278000400780073
:104900000080fa00000006000200fa00000f7800a4
:10491000a055a8001e027800040078000080fa006c
:10492000000006000200fa000002eb00040f78000d
:104930000002eb00040f7800260037008040eb00f7
:10494000e0c1b3009c0a070000427800e04f52002b
:1049500016003a0000c8b300cc0a070000427800f5
:10496000e04f520013003a0000c1b300c70a07002d
:1049700000427800e04f520010003a0000c2b3003d
:10498000c20a070000427800e04f52000d003a00d2
:104990000040eb00bd0a070000427800e04f5200e3
:1049a0000a003a00b00a07000d00370000000000be
:1049b000070037000000000005003700000000007d
:1049c0000300370000000000010037000000000075
:1049d0001e0fe8001e027800e20f5200d7ff3400dd
:1049e0000080fa00000006000000fa000080fa00d3
:1049f000000006000600fa00000f7800110798007a
:104a0000220798008000eb000e007800bf2307000b
:104a1000004278000482fb00f00f520003003200d5
:104a2000f10f52000500320008003700a235a8003f
:104a3000a255a8000042eb0005003700a235a900ee
:104a4000a255a8000042eb000100370014c0b300db
:104a5000044078000080fa00000006000800fa0018
:104a60003007980014ad800064026200e00f52002d
:104a700013003200110020003e0090008d2e070030
:104a800014ad800062026200e00f520005003200a7
:104a900002c1b3008000eb003e00900064230700d9
:104aa0000400370012c1b3008000eb003e0090000c
:104ab0005f230700a255a9000042eb0084003700e5
:104ac00014ad800061026200e00f52007f003200ee
:104ad0000042eb00044f7800160037008040eb00e6
:104ae000e0c1b300340a070000427800e04f5200f2
:104af0000c003a0030c8b300640a07000042780096
:104b0000e04f520009003a0011c0b300e0c1b30009
:104b10003f0a070000427800e04f520009003200cf
:104b20000300370000000000010037000000000013
:104b30001e4fe8001e427800e24f5200e7ff3600a9
:104b400001003700000000001e427800e34f5200d1
:104b50000e003a00210020003e009000552e070074
:104b600000c1eb008000eb003e0090003023070006
:104b70000041eb00110020003e0090002c230700b4
:104b8000a215a9000042eb0051003700710020007f
:104b90003e009000472e07000041eb008000eb0034
:104ba0003e009000222307000040eb00450a07006a
:104bb00000427800144798000040eb00410a0700cb
:104bc00000427800244798001e4290000482fb00b7
:104bd000240798002e0290004822dd002407980048
:104be0002e4290000482fb00ae029000048272000c
:104bf000240798002e0290000402ea00240798007f
:104c00002e029000244798002e0290004822de00d9
:104c1000240798002e029000144798002e4190001f
:104c2000310020003e009000012307001e4190004b
:104c3000410020003e009000fd2207000040eb00f4
:104c4000200a070000427800144798000040eb005b
:104c50001c0a070000427800244798002e4190006b
:104c6000510020003e009000f12207001e419000fc
:104c7000610020003e009000ed2207000040eb00a4
:104c8000100a0700004278001447980010c0b300d3
:104c90000c0a070000427800244798002e4190003b
:104ca000110020003e009000e12207001e4190000c
:104cb000210020003e009000dd220700ea090700e5
:104cc000a215a9000042eb000100370014c0b30098
:104cd000044078000080fa00000006000000fa009e
:104ce0000080fa00000006000000fa0014ad800009
:104cf0000402d100614262000482fb006102620092
:104d000016ad8000e5ff2f0085026300048272006b
:104d100014ad88000080fa00000006000000fa00d0
:104d20000080fa00000006000200fa00000f780080
:104d300014ad80000402d100614262000482fb00d5
:104d40006102620016ad8000e5ff2f00850263005e
:104d50000482720014ad88001e02780004007800fe
:104d60000080fa00000006000200fa00000f780040
:104d7000a255a8001e027800040078000080fa0006
:104d8000000006000200fa000002eb00040f7800a9
:104d90000002eb00040f7800180037008040eb00a1
:104da00090c6b3008409070000427800e04f52002b
:104db0000c003a0000c2b300b409070000427800ba
:104dc000e04f520009003a000040eb00af09070035
:104dd00000427800e04f520006003a00a2090700a6
:104de0000900370000000000030037000000000049
:104df00001003700000000001e0fe8001e027800ce
:104e0000e20f5200e5ff3400401f2000c12d0700d3
:104e10000002eb00040f7800340037008040eb0004
:104e200090c6b3006409070000427800e04f5200ca
:104e300020003a0000cab30094090700004278003d
:104e4000e04f52001d003a00f0c0b3008f09070088
:104e500000427800e04f52001a003a000040eb0098
:104e60008a09070000427800e04f520017003a001c
:104e700020c0b3008509070000427800e04f5200cf
:104e800014003a000040eb0080090700004278005f
:104e9000e04f520011003a0000c4b3007b09070044
:104ea00000427800e04f52000e003a006e09070001
:104eb00011003700000000000b0037000000000068
:104ec0000900370000000000070037000000000064
:104ed000050037000000000003003700000000005c
:104ee00001003700000000001e0fe8001e027800dd
:104ef000e20f5200c9ff34000002eb00040f7800fb
:104f0000180037008040eb0090c6b3002a09070064
:104f100000427800e04f52000c003a00e0c2b300bb
:104f20005a09070000427800e04f520009003a0099
:104f3000f0c5b3005509070000427800e04f520069
:104f400006003a0048090700090037000000000089
:104f500003003700000000000100370000000000df
:104f60001e0fe8001e027800e20f5200e5ff340039
:104f70000080fa00000006000000fa000080fa003d
:104f8000000006000600fa00000f780011079800e4
:104f9000220798008000eb000e0078005b220700db
:104fa000004278000482fb00f00f52000300320040
:104fb000f10f52000500320008003700a435a800a8
:104fc000a455a8000042eb0005003700a435a90055
:104fd000a455a8000042eb000100370014c0b30044
:104fe000044078000080fa00000006001600fa0075
:104ff000200f980024ad800064026200e00f520090
:1050000013003200110020002e089000292d070007
:1050100024ad800062026200e00f52000500320001
:1050200002c1b3008000eb002e08900000220700b0
:105030000400370012c1b3008000eb002e0890007e
:10504000fb210700a455a9000042eb0053013700e3
:1050500024ad800061026200e00f52004e01320078
:105060000002eb00140798006022b80024079800a3
:10507000350798006022b80044079800550798004b
:105080006022b80064079800750798000002eb00e2
:1050900014079800180037008040eb0090c6b3005a
:1050a000c508070000427800e04f52000c003a00ab
:1050b000f0c2b300f508070000427800e04f52004c
:1050c00009003a0011c0b30090c6b300d008070031
:1050d00000427800e04f52000b003200030037001e
:1050e0000000000001003700000000001e029000d8
:1050f0000402e800140798001e029000e20f52001c
:10510000e5ff360001003700000000001e0290009d
:10511000e30f52000e003a00210020002e089000fc
:10512000e42c070000c1eb008000eb002e0890008b
:10513000bf2107000041eb00110020002e08900065
:10514000bb210700a415a9000042eb0013013700a2
:1051500010c0b300db080700004278002457980015
:10516000c10807000002eb00140798001800370080
:105170008040eb0090c6b3008f0807000042780023
:10518000e04f52000c003a0080cab300bf0807008d
:1051900000427800e04f520009003a0011c0b3000d
:1051a00090c6b3009a08070000427800e04f520012
:1051b0000b00320003003700000000000100370040
:1051c000000000001e0290000402e800140798008e
:1051d0001e029000e20f5200e5ff3600010037008a
:1051e000000000001e029000e30f52000e003a0083
:1051f000210020002e089000ae2c070000c1eb001b
:105200008000eb002e089000892107000041eb0090
:10521000110020002e08900085210700a415a90088
:105220000042eb00dd0037000002eb00140798009d
:105230004e0037001e0290008402e8002e529000bb
:105240000482fb007f026200848f520003003a0058
:1052500014c0b300044f7800020037000042eb0096
:10526000044f78000040eb009608070000427800e9
:10527000045798000040eb009208070000427800b5
:10528000145798000e5290008482fb001e5290002a
:105290000482fb004822dd0004827200cfa2de00ff
:1052a0002e039000be0390000602420087824a004f
:1052b00024079800350798000040eb00810807009c
:1052c00000427800045798000040eb007d0807007a
:1052d00000427800145798000e5290008482fb0020
:1052e0001e5290000482fb004822dd0004827200fe
:1052f000cfa2de004e039000de03900006024200c3
:1053000087824a0044079800550798000040eb0048
:105310006c08070000427800045798001e4078008f
:105320006808070000427800145798000e52900059
:105330008482fb001e5290000482fb004822dd00a4
:1053400004827200cfa2de006e039000fe03900084
:105350000602420087824a00640798007507980099
:105360001e0290000402e800140798002e529000dc
:105370000482fb00ff0262001e029000848f520034
:10538000acff3e0038080700010120002e08900005
:10539000482c07000041eb008000eb002e08900035
:1053a000232107000041eb00110020002e0890008f
:1053b0001f2107001e02900004427800044178007b
:1053c000210020002e089000192107001e029000e5
:1053d0004822de00044278000441780031002000b9
:1053e0002e089000122107002e029000044278003f
:1053f00004417800410020002e0890000c21070095
:105400002e029000be029000482bdd004822de00f4
:1054100004027300c8aade00044278000441780048
:10542000510020002e089000012107002e0290005c
:10543000be02900040aade00cfa2de000442780047
:1054400004417800610020002e089000f820070039
:105450002e029000be02900048aade00cfa2de001d
:105460000442780004417800710020002e0890006a
:10547000ef2007004e0290000442780004417800bb
:10548000810020002e089000e92007004e029000c5
:10549000de029000482bdd004822de00040273008b
:1054a000c8aade0004427800044178009100200080
:1054b0002e089000de2007004e029000de029000d1
:1054c00040aade00cfa2de0004427800044178004a
:1054d000a10020002e089000d52007004e02900069
:1054e000de02900048aade00cfa2de00044278006f
:1054f00004417800b10020002e089000cc20070065
:105500006e0290000442780004417800c10020003f
:105510002e089000c62007006e029000fe02900048
:10552000482bdd004822de0004027300c8aade001a
:105530000442780004417800d10020002e08900039
:10554000bb2007006e029000fe02900040aade0021
:10555000cfa2de000442780004417800e100200080
:105560002e089000b22007006e029000fe0290000c
:1055700048aade00cfa2de00044278000441780091
:10558000f10020002e089000a9200700a415a90012
:105590000042eb000100370014c0b3000440780063
:1055a0000080fa00000006000000fa000080fa0007
:1055b000000006000000fa0024ad80000402d100c3
:1055c000614262000482fb006102620026ad80003d
:1055d000e5ff2f00850263000482720024ad88007d
:1055e0000080fa00000006000000fa000080fa00c7
:1055f000000006000200fa00000f780024ad8000d1
:105600000402d100614262000482fb006102620078
:1056100026ad8000e5ff2f00850263000482720042
:1056200024ad88001e027800040078000080fa0093
:10563000000006000200fa00000f7800a455a80040
:105640001e027800040078000080fa0000000600c6
:105650000200fa00000f78001e02780064a988009a
:105660000080fa00000006000000fa000002eb00d3
:1056700064a988000080fa00000006000200fa0019
:10568000000f78001e027800e10f52000300320084
:10569000e20f52000b0032001400370064a98000b2
:1056a000e20f520002003a008602070001003700b4
:1056b000000000001400200064a988006a010700af
:1056c0001700370064a98000e10f520002003a0081
:1056d0008d010700010037000000000024002000b9
:1056e00064a98800510207000d00370064a98000fa
:1056f000e10f520004003200e20f520004003a00b1
:1057000070020700030037007f0107000100370027
:10571000000000000002eb0064a988000000000007
:105720000080fa00000006000000fa0064a9800072
:10573000040078000080fa00000006000000fa0073
:10574000cd00070000427800e04f52000400320014
:10575000b900070000427800e04f5200020032001a
:105760002300070001003700000000000080fa005d
:10577000000006000200fa00000f78001e02780008
:10578000648f88001a0007000080fa0000000600fd
:105790000000fa00592107000080fa00000006000e
:1057a0000200fa00000f7800542107001e02780062
:1057b000e00f520003003200e20f520004003200fa
:1057c0000600370010c0b300ba27070006003700f4
:1057d00030c0b300b72707000300370020c0b30074
:1057e000b4270700000000000080fa000000060057
:1057f0000000fa00648f800004007800e8ff0700d2
:105800000080fa00000006000200fa00000f780095
:10581000648f80009e0f5200040032001e02780048
:10582000648f8800c5ff07000100370000000000fa
:105830000080fa00000006000000fa00648f80007b
:10584000040078000080fa00000006000000fa0062
:10585000e42a210004017800e11e2100e02a210051
:10586000a61107000080fa00000006000000fa0000
:10587000e02a2100d31107000080fa000000060092
:105880000000fa00e02a2100101207000042780010
:10589000044078000080fa00000006000600fa00cc
:1058a000000f78001107980022079800ae019000c1
:1058b0001e0190009e007800e02a210014120700cb
:1058c00000427800044078000080fa0000000600e2
:1058d0000600fa00000f78001107980022079800d0
:1058e000ae0190001e0190009e007800e02a210089
:1058f0004812070000427800044078000080fa0057
:10590000000006000400fa00000f7800110798005c
:105910001e0190009e007800e02a21005f1207001f
:1059200000427800044078000080fa000000060081
:105930000200fa00000f78009e007800e02a2100a3
:105940007d12070000427800044078000080fa00d1
:10595000000006000200fa00000f78009e007800a8
:10596000e02a2100871207000080fa0000000600ec
:105970000000fa000042eb00040078002ef5b700aa
:105980000042eb00040078002ff5b700c42120008e
:1059900084a98800c403200094a988000002eb00b9
:1059a000a4a988000042eb000400780036f5b70097
:1059b0000042eb000400780037f5b7000042eb002e
:1059c0000400780038f5b7000080fa0000000600f7
:1059d0000000fa006453210014427800e04f5200a6
:1059e00001003200c80007000042eb00040078000c
:1059f0002ef5b7000042eb00040078002ff5b70049
:105a0000c421200084a98800c403200094a9880030
:105a10000002eb00a4a988000042eb00040078001b
:105a200036f5b7000042eb000400780037f5b70008
:105a30000080fa00000006000000fa007453210004
:105a400014427800e04f52000600320064532100f7
:105a500014427800e04f520002003200140020008f
:105a6000010037000002eb00044278000440780097
:105a70000080fa00000006000000fa0064532100d4
:105a800014427800044078000080fa00000006000c
:105a90000400fa00000f78001107980085a9800023
:105aa0001e027800050a780095a980001e02900069
:105ab000050a78000080fa00000006000400fa00e1
:105ac000000f7800110798001e027800e00f5200c6
:105ad00002003d000002eb00040f78001e0290005f
:105ae000e00f520002003c00140020001407980050
:105af0001e02780084a988001e02900094a98800e4
:105b00000080fa00000006000000fa00e4522100c4
:105b1000144278000444a2000482fb000402ea005c
:105b20004f22de0004427800044078000080fa0032
:105b3000000006000400fa00000f7800110798002a
:105b4000f1ff070000427800e04f520002003a00e7
:105b500014c0b30015003700e4522100144278004d
:105b60000482fb00c222dd00a42b2100048242003b
:105b70001e0a7800e4522100144278000482fb00df
:105b8000c222dd00c42b2100048242009e0290004c
:105b9000050a7800e4522100144278000442e8002b
:105ba000040078002ef5b7000042eb0004407800b6
:105bb0000080fa00000006000000fa00f452210004
:105bc000144278000444a2000482fb000402ea00ac
:105bd0004f22de0004427800044078000080fa0082
:105be000000006000400fa00000f7800110798007a
:105bf000f1ff070000427800e04f520002003a0037
:105c000014c0b30015003700f4522100144278008c
:105c10000482fb00c222dd00a42f21000482420086
:105c20001e0a7800f4522100144278000482fb001e
:105c3000c222dd00c42f2100048242009e02900097
:105c4000050a7800f4522100144278000442e8006a
